:100000000C9461010C9482010C9482010C94780A86
:100010000C948F0A0C9482010C9482010C9482013E
:100020000C9482010C9482010C9482010C94820144
:100030000C9482010C9482010C9482010C94820134
:100040000C9482010C9482010C9482010C94820124
:100050000C9482010C9482010C9482010C94820114
:100060000C9482010C9482010C9482010C94820104
:100070000C9482010C9482010C9482010C948201F4
:100080000C94CC0A0C9482010C9482010C94820191
:100090000C9482010C9482010C9482010C948201D4
:1000A0000C9482010C9482010C9482010C948201C4
:1000B0000C9482010C9482010C9482010C948201B4
:1000C0000C9482010C9482010C9482010C948201A4
:1000D0000C9482010C9482010C9482010C94820194
:1000E0000C94820105A84CCDB2D44EB93836A90281
:1000F0000C50B9918688083CA6AAAA2ABE00000026
:10010000803F07634236B79BD8A71A39685618AEA6
:10011000BAAB558C1D3CB7CC5763BD6DEDFD753E3C
:10012000F6177231BF000000803F08000000BE9249
:100130002449123EABAAAA2ABECDCCCC4C3E00002C
:100140000080BEABAAAAAA3E00000000BF000000CB
:10015000803F0000000000084178D3BB4387D113E3
:100160003D190E3CC3BD4282AD2B3E68EC8276BE8B
:10017000D98FE1A93E4C80EFFFBE01C4FF7F3F0055
:10018000000000006E616E00696E660000407A102B
:10019000F35A00A0724E18090010A5D4E80000E838
:1001A0007648170000E40B54020000CA9A3B000096
:1001B00000E1F505000080969800000040420F0025
:1001C0000000A08601000000102700000000E803E6
:1001D000000000006400000000000A0000000000B1
:1001E0000100000000002C76D888DC674F0823DF70
:1001F000C1DFAE59E1B1B796E5E3E453C63AE65143
:10020000997696E8E6C28426EB898C9B62ED407C69
:100210006FFCEFBC9C9F40F2BAA56FA5F490055A05
:100220002AF75C936B6CF9676DC11BFCE0E40D472A
:10023000FEF520E6B500D0ED902E0300943577054D
:100240000080841E080000204E0A000000C80C3305
:100250003333330F986E12831141EF8D2114893B94
:10026000E65516CFFEE6DB18D1844B381BF77C1D14
:10027000901DA4BBE424203284725E228100C9F167
:1002800024ECA1E53D274E414E494E495459494E73
:1002900046CDCCCC3D0AD7233C17B7D13877CC2BF1
:1002A000329595E6241FB14F0A000020410000C896
:1002B0004200401C4620BCBE4CCA1B0E5AAEC59D17
:1002C000740011241FBECFEFD1E2DEBFCDBF00E02E
:1002D0000CBF12E0A0E0B2E0EAEEFEE200E00BBFED
:1002E00002C007900D92AA38B107D9F725E0AAE815
:1002F000B2E001C01D92A73CB207E1F70E94E00EF8
:100300000C9473170C94000010927E0010927D00E4
:1003100080E480937C0084E880937A0010927B00D4
:100320000895982F9F71906490937C0085FF04C07E
:1003300080917B00886003C080917B00877F8093E1
:100340007B0085E08A95F1F7000080917A00806457
:1003500080937A0080917A0084FFFCCF80917A00AC
:10036000806180937A00809178009091790008955F
:100370001F93CF93DF93182FC3EAD3E0812F0E94FE
:100380009101BC0180E090E00E945D106993799337
:100390008993999389EB93E00197F1F700C094E07A
:1003A000C33AD90759F7DF91CF911F9108959093E0
:1003B000C5008093C40088E18093C10086E08093EB
:1003C000C20008959091C00095FFFCCF8093C600B5
:1003D0000895CF93DF93EC018991882319F00E944F
:1003E000E201FACFDF91CF9108958F929F92AF9261
:1003F000BF92CF92DF92EF92FF920F931F93CF9312
:10040000DF93CDB7DEB7A3970FB6F894DEBF0FBE6C
:10041000CDBF80E092E00E94E9010DEA14E0E12CFA
:10042000F12C83E1882E82E0982ECE0101966C019A
:100430009DE1A92E92E0B92EB7010F2C000C880B7C
:10044000990B0E945F1020E030E040E755E40E94E5
:10045000941120E030E040E85CE30E9494119F9307
:100460008F937F936F939F928F92DF92CF920E9490
:100470004C15C6010E94E901F80180819181228119
:1004800033810C5F1F4F3F932F939F938F93BF92A6
:10049000AF92DF92CF920E944C15C6010E94E901F3
:1004A00080E192E00E94E901FFEFEF1AFF0A0FB628
:1004B000F894DEBF0FBECDBF91E2E916F10409F05A
:1004C000BBCFA3960FB6F894DEBF0FBECDBFDF91B2
:1004D000CF911F910F91FF90EF90DF90CF90BF9041
:1004E000AF909F908F900895EF92FF920F931F937C
:1004F000CF937C0190E0062F10E001501109292FC5
:1005000030E08091C00087FFFCCF8091C6008D3025
:1005100069F4F701E20FF31F108280E192E0CF91BE
:100520001F910F91FF90EF900C94E9018A3089F3AD
:100530002017310734F7C1E0C90FF701E20FF31FAD
:1005400080830E94E2019C2FDACF0F931F93CF93F9
:10055000DF93CDB7DEB7C058D1090FB6F894DEBF30
:100560000FBECDBF209193023091940280919502ED
:10057000909196023F932F939F938F9386E292E000
:100580009F938F931F9280E88F938E010F5F1F4F71
:100590001F930F930E940F15C8010E94E9010FB627
:1005A000F894DEBF0FBECDBFC058DF4F0FB6F89432
:1005B000DEBF0FBECDBFDF91CF911F910F91089588
:1005C0002F923F924F925F926F927F928F929F9263
:1005D000AF92BF92CF92DF92EF92FF920F931F9351
:1005E000CF93DF93CDB7DEB7AA970FB6F894DEBFEF
:1005F0000FBECDBF8FE390E09093BC058093BB0509
:1006000080E290E09093A4048093A30486E090E0BD
:100610009093C0058093BF052091C1052983309137
:10062000C2053B834091C3054F835091C405598750
:100630008090AD059090AE05A090AF05B090B0054C
:1006400060919D0370919E0307EA13E04BE952E02D
:1006500021E030E080E290E03E832D832F333105AE
:1006600009F45BC0281739070CF040C0FC01EE0FFD
:10067000FF1FEE0FFF1FDF01AD55BC4F6C9169836B
:1006800011967C9111977B8312966C9112976F83D0
:1006900013967C9113977987BF0169567D4FFB01B3
:1006A00080809180A280B380F801C080D180E280F8
:1006B000F380CD92DD92ED92FC921397FA01C08007
:1006C000D180E280F380FB01C082D182E282F3829A
:1006D000C980DB80EF80F984F801C082D182E28298
:1006E000F382FA0180829182A282B38260E270E09A
:1006F000861797074CF0861B970B77FF02C06F5F3A
:100700007F4F75956795F4CF860F971F2F5F3F4FEB
:100710000C5F1F4F4C5F5F4F9FCF70939E036093A2
:100720009D032091A7043091A8043C8B2B8B209033
:10073000970330909803A091A904B091AA04309136
:10074000AB042091AC04D090B705F091B805E091CE
:10075000B905C090BA054091B50549A35091B605B9
:100760005AA36091B1057091B2057CA36BA37091FF
:10077000990379A740919A034AA710919B0300918E
:100780009C0340919F035091A0036091A10370913D
:10079000A2034B875C876D877E8761E070E07E8B6C
:1007A0006D8B4D895E894730510509F49EC1ED89F5
:1007B000FE89BF01FF0F880B990B0E945F109B0100
:1007C000AC0160E070E080E090E40E9401120E94C1
:1007D000940F0E9427106B017C017C8B6B8BCB01EB
:1007E00077FD01961C0135942794B101032C000C70
:1007F000880B990B0E945F109B01AC016BED7FE0B1
:1008000089E490E40E94B50F2B013C010E94B00FD7
:100810006D8F7E8F8F8F98A3C301B2010E945112FA
:100820009B01AC0150582F87388B498B5A8B43EA78
:1008300053E05A8F498F67E972E07C8F6B8FC60156
:10084000880F991F880F991F988F8F8BF101EE0FDA
:10085000FF1FEE0FFF1FF8A7EFA380E090E01B86BD
:100860001C861D861E8619A61AA610E80FE3AC0189
:100870004F5F5F4F5EA34DA3241635060CF420C1D5
:1008800089A39AA3298D3A8D4FA158A5240F351F0E
:1008900038872F836B8D7C8D640F751F7A876987EE
:1008A0008B8D9C8D9C838B83E98DFA8DFA83E983F4
:1008B000F9A1FD832AA12E836D817E8160347105AB
:1008C0000CF0A9C04D815E81420D531D5CA34BA36A
:1008D000EF81F8854080518062807380E985FA85D8
:1008E00080809180A280B380A301920169A57AA53E
:1008F000812F902F0E9494116B017C01A50194011E
:100900006B857C858D859E850E9494119B01AC0131
:10091000C701B6010E94270F6B017C01A301920160
:100920006B857C858D859E850E9494112B013C01F1
:10093000A501940169A57AA5812F902F0E94941199
:100940009B01AC01C301B2010E94280F4B015C0165
:10095000A7019601E981FA81608171818281938189
:100960000E94270FEF81F8856083718382839383D0
:10097000A5019401EB81FC81608171818281938169
:100980000E94270FE985FA856083718382839383B0
:10099000A7019601E981FA81608171818281938149
:1009A0000E94280FE981FA81608371838283938397
:1009B000A5019401EB81FC81608171818281938129
:1009C0000E94280FEB81FC81608371838283938373
:1009D0002D813E814B895C89240F351F3E832D83F9
:1009E0006F8178858F89988D680F791F78876F83DD
:1009F000E985FA85E80FF91FFA87E98729813A81A5
:100A0000280F391F3A8329834B815C81480F591F76
:100A10005C834B8351CF2D8D3E8D4F8D58A169A5A1
:100A20007AA5812F902F0E9494116B017C012B8558
:100A30003C854D855E856F85788989899A890E9474
:100A400094119B01AC01C701B6010E94270F3B0125
:100A50002C012F85388949895A8969A57AA5812F62
:100A6000902F0E9494116B017C012B853C854D8554
:100A70005E856D8D7E8D8F8D98A10E9494119B0156
:100A8000AC01C701B6010E94280F6B877C878D8758
:100A90009E87898D9A8D04969A8F898FEB8DFC8D18
:100AA0003496FC8FEB8F8DA19EA1F9A5F9832AA521
:100AB0002B831F83098769A67AA6142D052DD7CE0F
:100AC000C10137FE02C080E090E001966D897E8909
:100AD0006F5F7F4F7E8B6D8BAD8DBE8D3F8D28A15F
:100AE000DF84F889E989CA885CCE6D817E81709344
:100AF000BE056093BD054BA15CA15093B205409328
:100B0000B10549A55AA5612F702F409399035093C1
:100B10009A0360939B0370939C034B855C856D8562
:100B20007E8540939F035093A0036093A10370932D
:100B3000A20349815B816F8179854093C105509300
:100B4000C2056093C3057093C4058092AD05909271
:100B5000AE05A092AF05B092B0059093A604809325
:100B6000A50459A15093B5056AA16093B6058B8978
:100B70009C899093A8048093A704309298032092B4
:100B80009703AD01632F722F4093A9045093AA04D9
:100B90006093AB047093AC048D2D9F2FAE2FBC2DB2
:100BA0008093B7059093B805A093B905B093BA05A3
:100BB00020E030E040E05FE36091A3037091A40384
:100BC0008091A5039091A6030E9494116093A303C2
:100BD0007093A4038093A5039093A60320E030E0D4
:100BE00040E05FE3609197027091980280919902D2
:100BF00090919A020E9494116093970270939802C8
:100C00008093990290939A0283EAE82E83E0F82E6B
:100C100007E912E01A82198220E030E040E05DE34B
:100C2000F70160817181828193810E949411F701A3
:100C300061937193819391937F0120E030E040E0D4
:100C40005DE3F80160817181828193810E9494113A
:100C5000F80161937193819391938F0129813A8176
:100C60002F5F3F4F3A83298320343105A9F600E0F6
:100C700010E01A821982E981FA81ED55FC4F6081FA
:100C8000718182819381E981FA81E956FD4FC080AB
:100C9000D180E280F3809B01AC010E9494114B0152
:100CA0005C01A7019601C701B6010E9494119B0146
:100CB000AC01C501B4010E94280F0E945F12E981B6
:100CC000FA81E355FB4F60837183828393830F5FC7
:100CD0001F4F49815A814C5F5F4F5A8349830032CD
:100CE000110549F61093B4050093B305AA960FB603
:100CF000F894DEBF0FBECDBFDF91CF911F910F9152
:100D0000FF90EF90DF90CF90BF90AF909F908F902B
:100D10007F906F905F904F903F902F9008950F932A
:100D20001F93CF93DF9303EA13E0C0E0D0E0BE014E
:100D300080E090E00E945D102BED3FE049EC50E434
:100D40000E94941120E030E04CE752E40E94B50F7D
:100D50000E94B00F2FE135E84BEE5EE30E94941144
:100D60009B01AC0161E77DE38AE09FE30E94270FCE
:100D70009B01AC01F80160817181828193810E94A5
:100D80009411F80161937193819391938F0121964E
:100D9000C034D10561F6DF91CF911F910F91089575
:100DA0000F931F93CF93DF9303EA13E0C0E0D0E0EB
:100DB000BE0180E090E00E945D102BED3FE049EC29
:100DC00050E40E94941120E030E04CE752E40E948D
:100DD000B50F0E94B00F20E030E040E05FE30E94DA
:100DE00094119B01AC0160E070E080E09FE30E9401
:100DF000270F9B01AC01F801608171818281938191
:100E00000E949411F80161937193819391938F01E2
:100E10002196C034D10561F6DF91CF911F910F91DA
:100E20000895E1E0F1E080818064808384B1806F87
:100E300084B92C9A83E28093B00082E08093B10061
:100E40001092B40081E8809380008AE08093810052
:100E5000109289001092880008952F988093B40012
:100E60002E9870E0709389006093880008952F9AFF
:100E70008093B4002E9A70E070938900609388008C
:100E800008951092B400109289001092880008957D
:100E90002F923F924F925F926F927F928F929F928A
:100EA000AF92BF92CF92DF92EF92FF920F931F9378
:100EB000CF93DF93CDB7DEB7C858D1090FB6F894FA
:100EC000DEBF0FBECDBF20E030E048EC52E40E9410
:100ED000B50FCB57DF4F688379838A839B83C558CF
:100EE000D040109292020E9441072FEF83EC99E0CC
:100EF000215080409040E1F700C000006CED8CED87
:100F00000E942D07812C912C2CE5A22E23E4B22ED9
:100F100075016401412C512C320100E8CE0101968B
:100F20001C01CB57DF4F288139814A815B81C5582D
:100F3000D040C301B2010E94AB0F87FFC8C020910F
:100F40008E0230918F0240919002509191026091F7
:100F50008A0270918B0280918C0290918D020E9486
:100F6000270F20E030E040E250E40E949411CF5778
:100F7000DF4F688379838A839B83C158D0409B016C
:100F8000AC01C701B6010E94270F6B017C01CF574E
:100F9000DF4F288139814A815B81C158D040C5012A
:100FA000B4010E94280F4B015C0120E030E04FE7C4
:100FB00053E4C701B6010E948F1118166CF020E0AF
:100FC00030E0A901C701B6010E94AB0F87FF0AC03C
:100FD000C12CD12C760106C0C12CD12C9FE7E92E63
:100FE00093E4F92E20E030E04FE753E4C501B4016B
:100FF0000E948F1118166CF020E030E0A901C501A5
:10100000B4010E94AB0F87FF0AC0812C912C5401C0
:1010100006C0812C912C8FE7A82E83E4B82EC7013F
:10102000B6010E942710162FC501B4010E94271097
:10103000862F612F0E942D0720918E0230918F0202
:10104000409190025091910260918A0270918B02BE
:1010500080918C0290918D020E94280F20E030E058
:1010600040E05FE30E9494112AE037ED43E25CE345
:101070000E9494119B01AC01C301B2010E94280F90
:101080002B013C018FE19EE40197F1F700C00000C5
:1010900020E030E048EC52E4C301B2010E94941118
:1010A0009F938F937F936F938CE492E09F938F93A2
:1010B0001F920F933F922F920E940F15C1010E9421
:1010C000E9010FB6F894DEBF0FBECDBF2ACF0E9454
:1010D0004107C857DF4F0FB6F894DEBF0FBECDBF34
:1010E000DF91CF911F910F91FF90EF90DF90CF9004
:1010F000BF90AF909F908F907F906F905F904F9038
:101100003F902F9008954F925F926F927F928F92AF
:101110009F92AF92BF92CF92DF92EF92FF92CF93C6
:10112000DF93CDB7DEB728970FB6F894DEBF0FBEBA
:10113000CDBF20E030E048EC52E40E94B50F6D8353
:101140007E838F8398870E9441072FEF83EC99E07D
:10115000215080409040E1F700C000006CED8CED24
:101160000E9437072FEF83EC99E021508040904098
:10117000E1F700C00000812C912C2CE5A22E23E485
:10118000B22E75016401412C512C32012D813E811A
:101190004F815885C301B2010E94AB0F87FFA2C0E7
:1011A00020918E0230918F024091900250919102D5
:1011B00060918A0270918B0280918C0290918D02D5
:1011C0000E94270F20E030E040E250E40E9494119A
:1011D00069837A838B839C839B01AC01C701B60131
:1011E0000E94270F6B017C0129813A814B815C8130
:1011F000C501B4010E94280F4B015C0120E030E0E2
:101200004FE753E4C701B6010E948F1118166CF026
:1012100020E030E0A901C701B6010E94AB0F87FFB3
:101220000AC0C12CD12C760106C0C12CD12C9FE75D
:10123000E92E93E4F92E20E030E04FE753E4C501B6
:10124000B4010E948F1118166CF020E030E0A90163
:10125000C501B4010E94AB0F87FF0AC0812C912CFD
:10126000540106C0812C912C8FE7A82E83E4B82E60
:10127000C701B6010E9427106983C501B4010E940D
:101280002710862F69810E94370720918E023091A6
:101290008F02409190025091910260918A02709168
:1012A0008B0280918C0290918D020E94280F20E089
:1012B00030E040E05FE30E9494112AE037ED43E222
:1012C0005CE30E9494119B01AC01C301B2010E9436
:1012D000280F2B013C018FE39CE90197F1F700C037
:1012E000000054CF28960FB6F894DEBF0FBECDBFD6
:1012F000DF91CF91FF90EF90DF90CF90BF90AF90B4
:101300009F908F907F906F905F904F900C944107CB
:101310002F923F924F925F926F927F928F929F9205
:10132000AF92BF92CF92DF92EF92FF920F931F93F3
:10133000CF93DF93CDB7DEB7C058D1090FB6F8947D
:10134000DEBF0FBECDBF1B012C0125E33AEF4EE8F7
:101350005CE30E94941129E334EB48EC5DE30E94C6
:1013600094116B017C01E894F7F80E9441072FEF7C
:1013700083EC99E0215080409040E1F700C00000EC
:1013800020E030E0A901C201B1010E948F111816BE
:101390001CF466EE80E002C060E086EE0E942D073D
:1013A000EFEFF1EE24E0E150F0402040E1F700C023
:1013B0000000FF92EF92DF92CF921F921F921F9236
:1013C0001F928EE592E09F938F931F9280E88F93F8
:1013D0008E010F5F1F4F1F930F930E940F15C801BF
:1013E0000E94E9010FB6F894DEBF0FBECDBF612C9D
:1013F000712CA12CB12C8EE5882E82E0982EA701AD
:101400009601662D772D8A2D9B2D0E94AB0F87FFAD
:101410004AC020E030E0A901C201B1010E948F1151
:1014200018164CF460918A0270918B0280918C02A4
:1014300090918D0208C060918E0270918F02809110
:101440009002909191022AE037ED43E25CE30E9422
:1014500094119B01AC01662D772D8A2D9B2D0E9446
:10146000280F3B015C01EFE3FCE93197F1F700C085
:101470000000FF92EF92DF92CF929F938F937F9322
:101480006F939F928F921F92F0E8FF931F930F9399
:101490000E940F15C8010E94E9010FB6F894DEBF43
:1014A0000FBECDBFACCF0E9441079FEFE3ECF9E048
:1014B0009150E040F040E1F700C00000C058DF4F1D
:1014C0000FB6F894DEBF0FBECDBFDF91CF911F9155
:1014D0000F91FF90EF90DF90CF90BF90AF909F90D3
:1014E0008F907F906F905F904F903F902F900895D6
:1014F0001F920F920FB60F9211248F939F9380919A
:101500009302909194020196909394028093930297
:101510009F918F910F900FBE0F901F9018951F9263
:101520000F920FB60F9211248F939F938091950283
:1015300090919602019690939602809395029F91C6
:101540008F910F900FBE0F901F901895E9E6F0E075
:101550008081806A808380818F7A80838DB38C6064
:101560008DBB8AB1837F8AB98BB18C608BB90895AA
:10157000E1E9F0E080818860808383EC99E09093DA
:10158000990080939800A1E7B0E08C9182608C93E1
:1015900080818560808308951F920F920FB60F920D
:1015A00011240BB60F922F933F934F935F936F933A
:1015B0007F938F939F93AF93BF93CF93DF93EF93DB
:1015C000FF9381E080939202609195027091960260
:1015D000C0919302D091940280E090E00E945D104F
:1015E00020E030E040EA51E40E94B50F23ED3BE9F2
:1015F00045ED5EE30E94941160938E0270938F021A
:101600008093900290939102BE0180E090E00E944E
:101610005D1020E030E040EA51E40E94B50F23ED78
:101620003BE945ED5EE30E94941160938A0270935A
:101630008B0280938C0290938D02109296021092EE
:1016400095021092940210929302FF91EF91DF9114
:10165000CF91BF91AF919F918F917F916F915F914A
:101660004F913F912F910F900BBE0F900FBE0F9097
:101670001F9018952F923F924F925F926F927F9298
:101680008F929F92AF92BF92CF92DF92EF92FF9292
:101690000F931F93CF93DF93CDB7DEB760970FB64D
:1016A000F894DEBF0FBECDBF7C011B016A01FC01B7
:1016B00017821682838181FF44C39E012F5F3F4FB3
:1016C0003901F7019381F10193FD859193FF819198
:1016D0001F01882309F431C3853239F493FD8591C4
:1016E00093FF81911F01853239F4B70190E00E9488
:1016F000D31456016501E5CF10E0512C912CFFE188
:10170000F915D8F08B3279F038F4803279F08332E1
:10171000A1F4F92DF0612EC08D3261F0803369F4AF
:10172000292D21602DC0392D3260932E892D8460A2
:10173000982E2AC0E92DE86015C097FC2DC020ED39
:10174000280F2A3088F496FE06C03AE0139F200D39
:101750001124122F19C08AE0589E200D1124522EF8
:10176000E92DE0629E2E10C08E3231F496FCE5C267
:10177000F92DF0649F2E08C08C3621F4292D2068A5
:10178000922E02C0883641F4F10193FD859193FFBA
:1017900081911F018111B3CF9BEB980F933020F4FF
:1017A000992D9061805E07C09BE9980F933008F0F7
:1017B00066C1992D9F7E96FF16E09F73992E853600
:1017C00019F49064992E08C0863621F4392F3068B8
:1017D000932E02C01111115097FE07C01C3350F414
:1017E00044244394410E27E00BC0183038F027E022
:1017F00017E005C027E09CE3492E02C0212F412CB1
:10180000560184E0A80EB11CF601608171818281CD
:101810009381042DA3010E94E5136C01F981FC87DB
:10182000F0FF02C0F3FF06C091FC06C092FE06C0A6
:1018300000E205C00DE203C00BE201C000E08C85B0
:101840008C7019F001115AC29BC297FE10C04C0C4B
:10185000FC85F4FF04C08A81813309F44A9414148E
:1018600074F528E0241578F588E0482E2CC096FC05
:101870002AC0812F90E08C159D059CF03CEFC3168B
:101880003FEFD30674F0892D8068982E0AC0E2E0FD
:10189000F0E0EC0FFD1FE10FF11D8081803319F4A2
:1018A00011501111F4CF97FE0EC044244394410E01
:1018B000812F90E0C816D9062CF41C1904C04424CA
:1018C000439401C010E097FE06C01C141D0434F4BC
:1018D000C601019605C085E090E002C081E090E07D
:1018E00001110196112331F0212F30E02F5F3F4F7E
:1018F000820F931F252D30E08217930714F4581A96
:1019000001C0512C892D897049F4552039F0B70157
:1019100080E290E00E94D3145A94F7CF002329F07C
:10192000B701802F90E00E94D31493FC09C055208A
:1019300039F0B70180E390E00E94D3145A94F7CFB6
:1019400097FE4CC04601D7FE02C0812C912CC601E7
:1019500088199909F301E80FF91FFE87ED879601B1
:1019600024193109388B2F87012F10E0119501952B
:1019700011093FEF8316930629F4B7018EE290E038
:101980000E94D314C814D9044CF08F859889881507
:10199000990524F4ED85FE85818101C080E3F1E0A5
:1019A0008F1A91082D853E852F5F3F4F3E872D87EB
:1019B000801691062CF0B70190E00E94D314D9CF85
:1019C000C814D90441F49A81963320F4953319F45C
:1019D0003C8534FF81E3B70190E04EC08A818133BA
:1019E00019F09C859F7E9C87B70190E00E94D314DC
:1019F000111105C094FC18C085E690E017C0B7012E
:101A00008EE290E00E94D3141E5F82E001E0080F96
:101A1000F301E80FF11D8081B70190E00E94D3141B
:101A2000802F0113F3CFE6CF85E490E0B7010E9449
:101A3000D314D7FC06C0C114D10441F4EC85E4FFF3
:101A400005C0D194C194D1088DE201C08BE2B701E9
:101A500090E00E94D31480E32AE0C216D1042CF057
:101A60008F5FFAE0CF1AD108F7CFB70190E00E945C
:101A7000D314B701C601C0960E94D31454C1833653
:101A800031F0833779F0833509F056C020C0560114
:101A900032E0A30EB11CF6018081898301E010E0E1
:101AA000630112C05601F2E0AF0EB11CF601C08016
:101AB000D18096FE03C0612F70E002C06FEF7FEF10
:101AC000C6010E94C8148C01F92DFF7714C056017D
:101AD00022E0A20EB11CF601C080D18096FE03C0A8
:101AE000612F70E002C06FEF7FEFC6010E94BD144E
:101AF0008C01F92DF0689F2EF3FD1AC0852D90E022
:101B000008171907A8F4B70180E290E00E94D314E7
:101B10005A94F4CFF60197FC859197FE81916F015D
:101B2000B70190E00E94D31451105A94015011094A
:101B30000115110579F7F7C0843611F0893661F582
:101B4000560197FE09C024E0A20EB11CF601608187
:101B50007181828193810AC0F2E0AF0EB11CF6015F
:101B600060817181072E000C880B990BF92DFF768F
:101B70009F2E97FF09C090958095709561957F4F36
:101B80008F4F9F4FF0689F2E2AE030E0A3010E9404
:101B90007B15C82EC6183FC0092D853721F40F7E4E
:101BA0002AE030E01DC0097F8F3691F018F48835A7
:101BB00059F0C3C0803719F0883711F0BEC00061FA
:101BC00004FF09C0046007C094FE08C0066006C098
:101BD00028E030E005C020E130E002C020E132E042
:101BE000560107FF09C084E0A80EB11CF601608110
:101BF00071818281938108C0F2E0AF0EB11CF601C1
:101C00006081718180E090E0A3010E947B15C82E65
:101C1000C6180F77902E96FE0BC0092D0E7FC116A9
:101C200050F494FE0AC092FC08C0092D0E7E05C037
:101C3000DC2C092D03C0DC2C01C0D12E04FF0DC00B
:101C4000FE01EC0DF11D8081803311F4097E09C085
:101C500002FF06C0D394D39404C0802F867809F085
:101C6000D39403FD11C000FF06C01C2DD51480F4D1
:101C7000150D1D190DC0D51458F4B70180E290E080
:101C80000E94D314D394F7CFD51410F45D1801C07B
:101C9000512C04FF10C0B70180E390E00E94D314E0
:101CA00002FF17C001FD03C088E790E002C088E58D
:101CB00090E0B7010CC0802F867859F001FF02C078
:101CC0008BE201C080E207FD8DE2B70190E00E9447
:101CD000D314C11638F4B70180E390E00E94D31406
:101CE0001150F7CFCA94F301EC0DF11D8081B701BB
:101CF00090E00E94D314C110F5CF15C0F4E0F515A3
:101D000060F584E0581A93FE1FC0011127C02C858E
:101D100023FF2AC004E811E0392D3071932EF80119
:101D20008491811124C0552009F4E4CCB70180E2EC
:101D300090E00E94D3145A94F6CFF70186819781E0
:101D400026C08FEF9FEF23C0B70180E290E00E9492
:101D5000D3145A945110F8CFD8CF512CB701802FFB
:101D600090E00E94D314D3CF08E811E0D5CF9110B2
:101D70008052B70190E00E94D3140F5F1F4FCFCF66
:101D800023E0251510F483E0BDCF512CC0CF609621
:101D90000FB6F894DEBF0FBECDBFDF91CF911F917C
:101DA0000F91FF90EF90DF90CF90BF90AF909F90FA
:101DB0008F907F906F905F904F903F902F900895FD
:101DC000CF93DF93CDB7DEB7E2970FB6F894DEBFBF
:101DD0000FBECDBF80E190E00E94D7010E94A60A0D
:101DE0000E94B80A0E94110778942FEF83ED90E3C8
:101DF000215080409040E1F700C000008E010F5F4D
:101E00001F4F62E3C8010E9474028981882399F000
:101E1000C8010E94E1130E948809EFEFF3ED20E36F
:101E2000E150F0402040E1F700C0000082E3F801FB
:101E300011928A95E9F70E944107FFEF23E284EFB0
:101E4000F15020408040E1F700C00000DACF505848
:101E5000BB27AA270E943F0F0C9429110E94F01063
:101E600038F00E94F71020F039F49F3F19F426F45F
:101E70000C94ED100EF4E095E7FB0C94BE10E92FE6
:101E80000E944E1158F3BA1762077307840795072B
:101E900020F079F4A6F50C9488110EF4E0950B2E41
:101EA000BA2FA02D0B01B90190010C01CA01A001AC
:101EB0001124FF27591B99F0593F50F4503E68F107
:101EC0001A16F040A22F232F342F4427585FF3CF48
:101ED000469537952795A795F0405395C9F77EF419
:101EE0001F16BA0B620B730B840BBAF09150A1F062
:101EF000FF0FBB1F661F771F881FC2F70EC0BA0FE8
:101F0000621F731F841F48F4879577956795B7956F
:101F1000F7959E3F08F0B0CF9395880F08F099276A
:101F2000EE0F9795879508950E94701190F09F3756
:101F300048F4911116F40C94891160E070E080E887
:101F40009FE3089526F01B16611D711D811D0C94E1
:101F5000C4100C94DF100E949A1008F481E00895D8
:101F60000E940011E3950C943A110E94C90F0C9441
:101F700029110E94F71058F00E94F01040F029F447
:101F80005F3F29F00C94BE1051110C9489110C94F0
:101F9000ED100E944E1168F39923B1F3552391F38C
:101FA000951B550BBB27AA2762177307840738F0C8
:101FB0009F5F5F4F220F331F441FAA1FA9F335D025
:101FC0000E2E3AF0E0E832D091505040E695001CD9
:101FD000CAF72BD0FE2F29D0660F771F881FBB1F93
:101FE000261737074807AB07B0E809F0BB0B802D71
:101FF000BF01FF2793585F4F3AF09E3F510578F09D
:102000000C94BE100C9489115F3FE4F3983ED4F316
:10201000869577956795B795F7959F5FC9F7880F70
:10202000911D9695879597F90895E1E0660F771FC2
:10203000881FBB1F621773078407BA0720F0621B53
:10204000730B840BBA0BEE1F88F7E09508950E947E
:102050002E106894B1110C94891108950E945611A4
:1020600088F09F5798F0B92F9927B751B0F0E1F059
:10207000660F771F881F991F1AF0BA95C9F714C009
:10208000B13091F00E948811B1E008950C9488114C
:10209000672F782F8827B85F39F0B93FCCF3869542
:1020A00077956795B395D9F73EF49095809570959F
:1020B00061957F4F8F4F9F4F0895E89409C097FB1C
:1020C0003EF490958095709561957F4F8F4F9F4F0F
:1020D0009923A9F0F92F96E9BB279395F695879553
:1020E00077956795B795F111F8CFFAF4BB0F11F416
:1020F00060FF1BC06F5F7F4F8F4F9F4F16C08823BD
:1021000011F096E911C0772321F09EE8872F762FF2
:1021100005C0662371F096E8862F70E060E02AF033
:102120009A95660F771F881FDAF7880F969587951F
:1021300097F90895990F0008550FAA0BE0E8FEEFF4
:1021400016161706E807F907C0F012161306E4077B
:10215000F50798F0621B730B840B950B39F40A2674
:1021600061F0232B242B252B21F408950A2609F452
:10217000A140A6958FEF811D811D089597F99F6756
:1021800080E870E060E00895882371F4772321F0FF
:102190009850872B762F07C0662311F499270DC01E
:1021A0009051862B70E060E02AF09A95660F771FB9
:1021B000881FDAF7880F9695879597F908959F3FBE
:1021C00031F0915020F4879577956795B795880FF2
:1021D000911D9695879597F908959FEF80EC089546
:1021E00000240A94161617061806090608950024F6
:1021F0000A94121613061406050608950C94ED10A1
:102200000E945611D8F3E894E0E0BB279F57F0F006
:102210002AED3FE049EC06C0EE0FBB0F661F771FAB
:10222000881F28F0B23A62077307840728F0B25A71
:10223000620B730B840BE3959A9572F7803830F438
:102240009A95BB0F661F771F881FD2F790480C9492
:10225000E110092E0394000C11F4882352F0BB0FF7
:1022600040F4BF2B11F460FF04C06F5F7F4F8F4FAE
:102270009F4F0895EF93E0FF07C0A2EA2AED3FE0E9
:1022800049EC5FEB0E943F0F0E9429110F900394CD
:1022900001FC9058E4EEF0E00C94071357FD9058C1
:1022A000440F551F59F05F3F71F04795880F97FB1A
:1022B000991F61F09F3F79F08795089512161306D4
:1022C0001406551FF2CF4695F1DF08C01616170603
:1022D0001806991FF1CF8695710561050894089538
:1022E0000E945611A0F0BEE7B91788F4BB279F38AB
:1022F00060F41616B11D672F782F8827985FF7CFE7
:10230000869577956795B11D93959639C8F308958D
:10231000E894BB2766277727CB0197F908950E9499
:102320009A1008F48FEF08950E94A7110C942911B8
:102330000E94F01038F00E94F71020F0952311F061
:102340000C94BE100C94ED1011240C9489110E9471
:102350004E1170F3959FC1F3950F50E0551F629F8A
:10236000F001729FBB27F00DB11D639FAA27F00DEE
:10237000B11DAA1F649F6627B00DA11D661F829F15
:102380002227B00DA11D621F739FB00DA11D621FFA
:10239000839FA00D611D221F749F3327A00D611D17
:1023A000231F849F600D211D822F762F6A2F1124F9
:1023B0009F5750409AF0F1F088234AF0EE0FFF1F2C
:1023C000BB1F661F771F881F91505040A9F79E3F83
:1023D000510580F00C94BE100C9489115F3FE4F31A
:1023E000983ED4F3869577956795B795F795E795D9
:1023F0009F5FC1F7FE2B880F911D9695879597F9E2
:102400000895FA01EE0FFF1F309621053105A1F165
:102410006115710561F48038BFE39B0749F1689449
:102420009038810561F08038BFEF9B0741F0992318
:102430004AF5FF3FE1053105210519F1E8940894BB
:10244000E795D901AA2329F4AB2FBE2FF85FD0F36B
:1024500010C0FF5F70F4A695E0F7F73950F019F05F
:10246000FF3A38F49F779F930DD00F9007FC905858
:10247000089546F00C94ED1060E070E080E89FE372
:1024800008954FE79F775F934F933F932F930E9459
:1024900065132F913F914F915F910E9494110C947D
:1024A000A7129F930E9400110F9007FCEE5F0C94FF
:1024B0003A1119F416F40C94ED100C94DF100E94EC
:1024C0005611B8F39923C9F3B6F39F57550B87FFFD
:1024D0000E94D9120024A0E640EA90018058569547
:1024E000979528F4805C660F771F881F20F02617C9
:1024F0003707480730F4621B730B840B20293129FE
:102500004A2BA69517940794202531254A2758F77A
:10251000660F771F881F20F026173707480730F40B
:10252000620B730B840B200D311D411DA09581F7AB
:10253000B901842F9158880F96958795089529F4AD
:1025400016F00C94BE100C9488110C94ED100E949F
:102550005611A8F39638A0F707F80F92E8942BE3EA
:102560003AEA48EB5FE70E94AA110F920F920F928E
:102570004DB75EB70F920E94AD13E2E0F1E00E940A
:10258000E0124F915F91EF91FF91E595EE1FFF1FD4
:1025900049F0FE57E0684427EE0F441FFA95E1F733
:1025A0004195550B0E9427130F9007FE0C941B13A7
:1025B000089591505040660F771F881FD2F70895F5
:1025C000DF93CF931F930F93FF92EF92DF927B01E4
:1025D0008C01689406C0DA2EEF010E94A711FE015B
:1025E000E894A5912591359145915591A6F3EF0178
:1025F0000E943F0FFE019701A801DA9469F7DF906E
:10260000EF90FF900F911F91CF91DF9108959F93CD
:102610008F937F936F93FF93EF939B01AC010E9485
:102620009411EF91FF910E94E0122F913F914F91F1
:102630005F910C9494119B01AC0160E070E080E824
:102640009FE30C94B50F0C94BE100C94DF100E9405
:102650005611D8F39923C9F3940F511DA3F3915048
:10266000504094F059F0882332F0660F771F881F8E
:1026700091505040C1F79E3F51052CF7880F911D96
:102680009695879597F908955F3FACF0983E9CF03A
:10269000BB27869577956795B79508F4B1609395B4
:1026A000C1F7BB0F58F711F460FFE8CF6F5F7F4FA2
:1026B0008F4F9F4FE3CF0C94891116F00C94DF10CD
:1026C0000C94ED1068940C94BE100E945611A8F35F
:1026D0009923C1F3AEF3DF93CF931F930F93FF9230
:1026E000C92FDD2788232AF02197660F771F881FBF
:1026F000DAF720E030E040E85FEB9FE3883920F034
:10270000803E38F021968F770E94280FEAE2F1E0B0
:1027100004C00E94280FE7E5F1E00E94E0128B015F
:10272000BE01EC01FB2E6F5771097595771F880B61
:10273000990B0E945F1028E132E741E35FE30E94BA
:10274000A711AF2D9801AE01FF900F911F91CF916E
:10275000DF910E943F0F0C942911FA01DC01AA0FAE
:10276000BB1F9B01AC01BF5728F422273327442706
:10277000507820C0B75190F4AB2F00244695379580
:102780002795011CA395D2F3002071F0220F331F6F
:10279000441FB395DAF30ED00C94270F6130710506
:1027A000A0E88A07B94630F49B01AC016627772779
:1027B00088279078309621F0208331834283538399
:1027C0000895662777270C94D915283008F027E05C
:1027D0003327DA01990F311D87FD9160009661055D
:1027E000710539F432602E5F3D9330E32A95E1F7AD
:1027F00008959F3F30F080387105610509F03C5F16
:102800003C5F3D93913008F08068911DDF93CF933A
:102810001F930F93FF92EF92192F987F9695E92FB0
:1028200096959695E90FFF27EA51FE4F9927332792
:10283000EE24FF24A701E70105900894079428F4EB
:10284000360FE71EF81E491F511D660F771F881FA0
:10285000991F0694A1F70590079428F4E70EF81E37
:10286000491F561FC11D770F881F991F661F0694A9
:10287000A1F70590079428F4F80E491F561FC71FAB
:10288000D11D880F991F661F771F0694A1F7059029
:10289000079420F4490F561FC71FD81F990F661FB2
:1028A000771F881F0694A9F784911095177041F03F
:1028B000D695C79557954795F794E7941A95C1F71C
:1028C000ECE8F1E06894159015913591659195913A
:1028D00005907FE27395E118F10A430B560BC90B83
:1028E000D009C0F7E10CF11E431F561FC91FD01DB0
:1028F0007EF4703311F48A95E6CFE894015030F0FD
:10290000080F0AF40027021708F4202F2395022F3E
:102910007A3328F079E37D932A95E9F710C07D9307
:102920002A9589F606949795679537951795179484
:10293000E118F10A430B560BC90BD00998F0239507
:102940007E9173957A3308F070E37C932013B8F787
:102950007E9170617D9330F0839571E37D9370E398
:102960002A95E1F71124EF90FF900F911F91CF91DD
:10297000DF91992787FD90950895FC01059061509E
:1029800070400110D8F7809590958E0F9F1F089585
:10299000FC016150704001900110D8F7809590952E
:1029A0008E0F9F1F08950F931F93CF93DF93FB010B
:1029B000238121FD03C08FEF9FEF2CC022FF16C0A3
:1029C00046815781248135814217530744F4A08101
:1029D000B1819D012F5F3F4F318320838C932681EE
:1029E00037812F5F3F4F3783268314C08B01EC0163
:1029F000FB010084F185E02D1995892BE1F6D801C2
:102A000016968D919C911797019617969C938E938D
:102A10001697CE01DF91CF911F910F9108950F93DB
:102A20001F93CF93DF93CDB7DEB72E970FB6F894F1
:102A3000DEBF0FBECDBF0E891F89888D998D26E020
:102A40002C831A83098397FF02C080E090E80197E6
:102A50009E838D83AE01445E5F4F6A8D7B8DCE0178
:102A600001960E943A0B4D815E8157FD0AC02F816D
:102A70003885421753070CF49A01F801E20FF31F4F
:102A800010822E960FB6F894DEBF0FBECDBFDF9139
:102A9000CF911F910F9108950F931F93CF93DF93C1
:102AA000CDB7DEB72E970FB6F894DEBF0FBECDBF01
:102AB0000E891F8986E08C831A8309838FEF9FE735
:102AC0009E838D83AE01465E5F4F688D798DCE010A
:102AD00001960E943A0BEF81F885E00FF11F1082FA
:102AE0002E960FB6F894DEBF0FBECDBFDF91CF910B
:102AF0001F910F910895FA01AA27283051F1203132
:102B000081F1E8946F936E7F6E5F7F4F8F4F9F4F81
:102B1000AF4FB1E03ED0B4E03CD0670F781F891FC3
:102B20009A1FA11D680F791F8A1F911DA11D6A0F91
:102B3000711D811D911DA11D20D009F468943F9144
:102B40002AE0269F11243019305D3193DEF6CF0143
:102B50000895462F4770405D4193B3E00FD0C9F709
:102B6000F6CF462F4F70405D4A3318F0495D31FD76
:102B70004052419302D0A9F7EACFB4E0A6959795C9
:102B8000879577956795BA95C9F70097610571059F
:102B900008959B01AC010A2E0694579547953795E9
:102BA0002795BA95C9F7620F731F841F951FA01D43
:102BB00008958F929F92AF92BF92CF92DF92EF9241
:102BC000FF920F931F93CF93DF93EC016B0161157D
:102BD000710519F0FB01918380837E01FFEFEF1AED
:102BE000FF0A0881802F90E00E943517892B11F091
:102BF000E701F3CF0D3239F47E0182E0E80EF11CDB
:102C0000098111E008C00B3229F47E0192E0E90E3F
:102C1000F11C098110E0E701219743E050E06EE8E4
:102C200072E0CE010E943E17892BC1F4239645E045
:102C300050E069E872E0CE010E943E17892B09F44A
:102C40002596C114D10419F0F601D183C083111166
:102C5000F6C060E070E080E89FE7FAC043E050E033
:102C600066E872E0CE010E943E17892B59F4C11428
:102C7000D10409F4E9C0F2E0EF0EF11CF601F18293
:102C8000E082E2C020E030E0A901C0E0D0E0F7013E
:102C900060EDA62EA00E89E08A1530F1912F92608A
:102CA000B92E812F887012FF04C0811124C0219693
:102CB00022C081112197A5E0B0E00E945917DC01E4
:102CC000CB01880F991FAA1FBB1F9C01AD012A0DC4
:102CD000311D411D511D283989E93807480789E10F
:102CE000580748F0166006C09EEFA9120AC013FDEF
:102CF00040C01860B12E8FEFE81AF80A00811B2D32
:102D0000C6CF802F8F7D8534A1F580818D3211F45F
:102D1000106106C08B3221F0319661E070E004C092
:102D20008181329662E070E080538A3018F0E61BB1
:102D3000F70B1FC060E070E060389CE079075CF43E
:102D4000DB01AA0FBB1FAA0FBB1F6A0F7B1F660FF9
:102D5000771F680F711D3196DF0111978C91805399
:102D60008A3050F314FF03C0719561957109C60F45
:102D7000D71F11FF08C0C114D10429F0CF0101975A
:102D8000F60191838083CA01B9010E945D10212F51
:102D90002370233019F04B015C0106C04B015C012C
:102DA000B7FAB094B7F8B09420E030E0A901C501BB
:102DB000B4010E94AB0F882309F43EC0D7FF06C0C0
:102DC000D195C195D10905EA12E002C00DEB12E0E0
:102DD0006801F8E1CF1AD10890E2E92EF12CCE1566
:102DE000DF0574F0F8012591359145915491C501A5
:102DF000B4010E9494114B015C01CE19DF09EFCFA1
:102E000004501109F594E7940C151D0541F78A2D1E
:102E1000880F8B2D881F8F3F49F020E030E0A901FB
:102E2000C501B4010E94AB0F811106C082E290E09F
:102E30009093C6058093C505C501B40109C060E043
:102E400070E080E89FEF04C060E070E080EC9FE7F6
:102E5000DF91CF911F910F91FF90EF90DF90CF9076
:102E6000BF90AF909F908F90089591110C9456173A
:102E7000803219F089508550C8F70895FB01DC01B4
:102E80004150504088F08D9181341CF08B350CF40A
:102E9000805E659161341CF06B350CF4605E861BBE
:102EA000611171F3990B0895881BFCCF992788272E
:102EB00008950E946417A59F900DB49F900DA49F44
:102EC000800D911D11240895A29FB001B39FC001F0
:102ED000A39F700D811D1124911DB29F700D811D46
:0A2EE0001124911D0895F894FFCF0E
:102EEA00464654204D41474E5F465245433A0D0AE5
:102EFA000D0A00463A252E316620487A002C204DCC
:102F0A003A252E316600497A713A20257520707566
:102F1A006C736F7320202020204465723A20257537
:102F2A002070756C736F7320200D0A0064697374C6
:102F3A00616E6369613A20252E3366200A0064694E
:102F4A007374616E6369613A20252E3366202064AA
:102F5A00697374616E636961206F626A6574697608
:0A2F6A006F3A20252E33660A00009E
:00000001FF
